:400000000080002011000000D9010000D901000080B500AF024A034B1B68136000F0E0F8BC760040FA46004010B5054C237833B9044B13B10448AFF300800123237010BD8B
:400040008881FF1F00000000A82E0000084B10B51BB108480849AFF300800848036803B910BD074B002BFBD0BDE81040184700BF00000000A82E00008C81FF1F0881FF1F95
:400080000000000080B500AF02F0F2FC02F0B2FDDC2002F08FFDDC2002F04EFE62B60020012100F087FB002002F066FE074800F013F800F02FF8064B1B78012B05D1054851
:4000C00000F00AF8024B00221A70F2E71081FF1FB481FF1F2482FF1F80B582B000AF786000BF00F0A1FF0346002BFAD07B683F3300221A707B683E3321221A70786802F007
:40010000CAFE03469BB27868194600F029FF0837BD4680BD80B582B000AF2A4B1B78002B0AD100F0E7FC0346002B48D000F0C4FE244B01221A7042E000F064FF0346002B51
:400140003DD000F083FF0346FB71FB790D2B02D0FB790A2B10D11C4B1B881A461B4B002199541B48194902F08EFE174B00221A80184B01221A7022E0FB79082B02D0FB7905
:400180007F2B0AD1104B1B88002B06D00E4B1B88013B9AB20C4B1A8011E00B4B1B883E2B03D9212000F012FF09E0074B1B885A1C91B2054A11801946044AFB795354083757
:4001C000BD4680BDB681FF1FB881FF1FC481FF1F2482FF1FB481FF1F80B400AFFEE700BF80B586B000AF224B7B61224B3B61204B7B6135E03B691B68FB603B695B68BB6046
:400200003B699B683B6000237B600CE0FB681A68BB681A60BB680433BB60FB680433FB607B6804337B607A683B689A42EED13B69DB683B6000237B6008E0BB6800221A606A
:40024000BB680433BB607B6804337B607A683B689A42F2D13B6910333B617B69013B7B617B69002BC6D102F0D5FDFFF70BFFFEE701000000B830000080B582B000AF184BC0
:40028000184A1A60184A184B1B6843F40073136000237B600FE07B68032B04D8134A7B6852F8233000E0124B12497A6841F822307B6801337B607B682F2BECD90E4B1B7861
:4002C000DAB20E4B1A700E4B0A4A1A6000F084F902F0D6FA0B4B00221A600837BD4680BD0CED00E00004FA0514ED00E000000000D90100000080FF1FBC7600400481FF1F7E
:4003000008ED00E00081FF1F80B582B000AF78603960786800213A6802F0ADFD0837BD4680BD00BF80B584B000AFF860B9607A60F868B9687A6802F093FD1037BD4680BD76
:4003400080B483B000AF0346FB71FEE780B487B000AF7860396000233B6100237B6127E07B699B007A6813441B68BB60BB68FB73BB6823F0FF03BB6014E03B695B003A68AE
:4003800013441B781A46BB68134419463B695B003A6813445B780B703B6901333B61FB7B013BFB73FB7B002BE7D17B6901337B617B692B2BD4D91C37BD465DF8047B70472B
:4003C00080B582B000AF3C4B04221A803B4B18221A703B4B3A221A803A4B18221A703A4B3B221A80394B18221A70394B81221A80384B18221A70384B00221A80374B1B22C7
:400400001A70374B06221A70364B52221A70364B364A1278D2B21A70354B40F619121A80344B41F251221A800023FB7019237B6014E0FB785B00DAB22F4B1B78DBB203F02C
:400440000103DBB21343DBB203F00303FB704FF4F07002F005FA7B68013B7B607B68002B02D0FB78032BE4D17B68002B02D10320FFF766FF214B4FF480721A801F4B0722B3
:400480001A701F4B00221A701E4B48221A701B4B00221A701C4B00221A701C4B02221A701B4A1B4B1B78DBB243F01F03DBB213700837BD4680BD00BF804000408240004075
:4004C0008440004086400040884000408A4000408C4000408E40004090400040924000400043004000420040A14600400F01004922420040204200402542004004400040AE
:4005000006400040084000400940004001400040A243004080B582B000AF224B1B78FB71214B1B78BB71214B1B787B71204AFB7903F00703DBB213701E4AFB791B09DBB26E
:400540001370194ABB7943F00303DBB21370174A7B7943F00303DBB21370174BE0221A70164BF4221A70164B40221A70154B40221A70154BEF221A70144B20221A70144B6D
:40058000E0221A700A2002F0B5F9084A7B791370054ABB7913700F4B44221A700837BD4680BD00BFCF010049F8460040F94600406E5800406F5800400D5100401D5100401F
:4005C000095900400B590040285B00402B5B0040585B00407658004080B586B000AF72B6584B61221A70FFF7EBFE564B01221A70554A554B1B78DBB243F00403DBB2137063
:400600000023FB7513E0FA7D13465B0013445B004E4A13443B613B691A683B699B889BB210461946FFF770FEFB7D0133FB75FB7D062BE8D90023FB751CE0FA7D13469B00F9
:4006400013445B00424A1344FB60FB681B68BB60FB685B687B60FB681A7A5B7A1B0213437B807B88B86879681A46FFF75BFEFB7D0133FB75FB7D002BDFD04FF090403549A0
:40068000FFF764FE34480421FFF73EFE334834490422FFF747FE334A324B1B78DBB243F00203DBB21370304A2F4B1B78DBB243F00203DBB213702D4A2C4B1B78DBB243F0B7
:4006C0004003DBB213702A4A294B1B78DBB243F01003DBB21370274827490822FFF722FE264827490822FFF71DFE264826490A22FFF718FE254826490822FFF713FE254882
:4007000025490A22FFF70EFE244825490822FFF709FE244B44221A70234B84221A70234A224B1B78DBB243F00803DBB21370FFF7F1FE1F480D490E22FFF7F4FD1837BD46CC
:4007400080BD00BF00480040E8460040AC2E0000D82E0000B00000480076004008760040101000480350014013500140A0430040C243004002510040D80F0048C25100401E
:40078000E00F0048F0510040E80F004812510040F40F004820510040FC0F00483251004008100048DB020140DB14014022430040B043004080B582B000AF03460A46FB71EC
:4007C0001346BB71084B1B78002B04D100F00EF8054B01221A70FA79BB791046194600F0D5F80837BD4680BDBA81FF1F80B582B000AF02F03DF80346FB71534A524B1B78EB
:40080000DBB243F00103DBB21370504A4F4B1B78DBB243F00103DBB213704D4B01221A704C4B02221A704C4A4B4B1B78DBB203F07F03DBB21370002002F05CF8474A474B65
:400840001B78DBB223F00603DBB21370444A444B1B78DBB223F02003DBB213703F4A3F4B1B78DBB243F00103DBB21370012002F041F8282002F03EF83A4A3A4B1B78DBB24A
:4008800003F07F03DBB21370364A364B1B78DBB223F04003DBB21370304A304B1B78DBB243F00203DBB21370022002F023F82B4A2A4B1B78DBB243F00403DBB213702A4BD7
:4008C00000221A70294B00221A70FB79184601F0D3FF1720072102F047F81720244902F01BF81820072102F03FF81820214902F013F81520072102F037F815201E4902F02A
:400900000BF80120072102F02FF801201B4902F003F80220072102F027F80220184901F0FBFF0320072102F01FF80320154901F0F3FF0C20072102F017F80C20124901F092
:40094000EBFF0837BD4680BDA5430040B54300409D60004009600040106000409443004012600040F85100408460004085600040451800001511000039180000351700005D
:4009800089170000DD1700005118000080B582B000AF03460A46FB711346BB712E4AFB7913702E4B00221A702D4B00221A702D4B00221A702C4B00221A702C4B00221A7078
:4009C0002B4B00221A702B4B00221A702A4B4FF400021A60284B4FF080721A60264B4FF400121A60244B02221A60234B04221A60214B08221A60BB79002B02D0012B09D0C0
:400A000011E01E4A1D4B1B78DBB223F00103DBB2137011E0194A194B1B78DBB243F00103DBB2137008E0154A144B1B78DBB243F00103DBB2137000BF114B03221A70114B5C
:400A400080221A70012001F00BFF0F4B04221A700837BD4680BD00BFBD82FF1FC082FF1FDC82FF1FDF82FF1FD482FF1FDE82FF1FE182FF1FBC82FF1F00E100E009600040F5
:400A800028600040086000401260004080B400AF0F4B00221A700F4B00221A700E4B00221A700E4B00221A700D4B00221A700D4B00221A700C4B00221A700C4B03221A700A
:400AC0000B4B80221A70BD465DF8047B704700BFC082FF1FDC82FF1FDF82FF1FD482FF1FDE82FF1FE182FF1FBC82FF1F286000400860004080B400AF034B1B78DBB21846DE
:400B0000BD465DF8047B7047DF82FF1F80B483B000AF0346FB71FA79064913465B0013449B000B445B78DBB218460C37BD465DF8047B7047E482FF1F80B485B000AF0346B2
:400B4000FB710023FB81FB79002B1BD0FB79082B18D8104AFB791B0113441B78DBB29BB203F00F03FB81FB891B029AB20949FB791B010B445B78DBB29BB21343FB81FB89F9
:400B8000023BFB81FB8918461437BD465DF8047B704700BFFC5F0040B0B485B000AF03463960FB711346BB80FB79002B66D0FB79082B63D8B988FA79324813465B0013444D
:400BC0009B000344DB889BB2C3F5007399420BD9FA792C4913465B0013449B000B44DB889BB2C3F50073BB80274CF979BB881B0A9BB2D8B2FA79234D13465B0013449B00D9
:400C00002B44DB78DBB20343DAB20B0123441A701D4AFB79B988C9B21B0113440A465A703B68002B13D00023FB810CE01748FB79FA8939680A4412781B01034408331A703F
:400C4000FB890133FB81FA89BB889A42EED3FA790C4913465B0013449B000B4400225A700948F979FA79074C13465B0013449B0023445B79DAB20B0103449A701437BD4693
:400C8000B0BC7047E482FF1FFC5F00407060004080B584B000AF03463960FB711346BB803B68002B30D0FB79002B2DD0FB79082B2AD8FB791846FFF73FFF03461A46BB88E3
:400CC000934205D9FB791846FFF736FF034600E0BB88BB800023FB810DE0FB893A6813440D49FA7912010A4408321278D2B21A70FB890133FB81FA89BB889A42EDD3FB798E
:400D0000184600F00BF801E00023BB80BB8818461037BD4680BD00BF7060004090B482B000AF0346FB71FB79002B19D0FB79082B16D8FA790C4913465B0013449B000B4478
:400D400000225A700948F979FA79074C13465B0013449B0023445B79DAB20B0103449A700837BD4690BC7047E482FF1FFC5F004080B582B000AF0023FB71324B1B79DBB28D
:400D8000184600F069F80346BB712E4B1B78DBB2DBB25BB2002B16DA2A4B5B78DBB2212B00D00FE0284B07221A80BA791346DB009B1A264A1344244A536000F025FB03464E
:400DC000FB7100BF38E01F4B5B78DBB2202B02D0222B1AD030E01C4B07221A80BA791346DB009B1A194A1344174A5360BB79BA7917498A5CD2B242F00102D1B2144AD15402
:400E000000F082FB0346FB7116E0BB790D4A9278D2B291B20F4A22F81310BB79BA790C498A5CD2B242F00202D1B2094AD15400F007FC0346FB7100BFFB7918460837BD46D6
:400E400080BD00BF00600040C882FF1F5081FF1FA482FF1FB882FF1F80B485B000AF0346FB710023FB73FF23BB7317E0FB7B104AD35C7B737A7B0F4913465B0013449B005E
:400E80000B4408339B78DBB2FA799A4203D1FB7BBB730223FB73FB7B0133FB73FB7B012BE4D9BB7B18461437BD465DF8047B7047AC82FF1FE482FF1F80B582B000AF0023C1
:400EC000BB71224B00221A70214B00221A70204B00225A700023FB7110E0FB791D4AD35C7B717B79002B06D07B79082B03D87B791846FFF713FFFB790133FB71FB79012BC4
:400F0000EBD9154B1B78DBB2002B18D0114B1B78DBB2002B13D0114B1B78DBB2002B0ED00D4B1B78DBB2082B09D80A4B1B78DBB2082B04D8094B1B78DBB2082B01D9012396
:400F4000BB71BB7918460837BD4680BDBB81FF1FA482FF1FB082FF1FA882FF1FAC82FF1F80B584B000AF78600B467B80144B1B781A46144B9B5CFB73FA7B134913465B00DB
:400F800013449B000B4408331B889BB27A889A420CD9FA7B0C4913465B0013449B000B4408331B887B80002001F098FCFA7B7B88104679681A46FFF7EFFD1037BD4680BD4D
:400FC000BB81FF1FA882FF1FE482FF1F80B584B000AF0346FB71FB79FB73084B1B781A46074B9B5CDAB207F10F03104619460122FFF7D2FD1037BD4680BD00BFBB81FF1FBA
:40100000A882FF1F80B500AF054B1B781A46054B9B5CDBB21846FFF779FD0346184680BDBB81FF1FB082FF1F80B500AF054B1B781A46054B9B5CDBB21846FFF767FD034619
:40104000184680BDBB81FF1FA882FF1F80B582B000AF094B1B781A46084B9B5CFB71FA79BB1D104619460122FFF712FEBB7918460837BD4680BD00BFBB81FF1FB082FF1F7D
:4010800080B485B000AF78600B46FB701346BB707B68DB7803F00303FB737B689B78DBB25BB2002B1ADAFB7B032B0AD0BB7803F001031549FA78CA54BB7843F00103BB7089
:4010C0001BE0BB789B08DBB203F001030F49FA78CA54BB7843F00403BB700EE0FB7B032B0BD0BB785B08DBB203F001030849FA78CA54BB7843F00203BB70BB781846143741
:40110000BD465DF8047B7047A882FF1FAC82FF1FB082FF1F80B582B000AF374B1B78BB71BB7903F01003002B63D00123FB71BB795BB2002B13DABB7903F00F03012B02D02E
:401140000023FB711DE000F061F82C4B1B78DBB2DBB25BB2002B14DA0023FB7111E0BB7903F04003002B02D000F094F809E0BB7903F02003002B02D000F0B2F801E000231F
:40118000FB71FB79002B34D01B4B1B78BB71BB795BB2002B2DDB1A4B1B78DAB2194B1B78DBB21343BB71184ABB791370164B1B78DBB2BA799A421CD1104B1B78FB710E4BB4
:4011C0001B78DBB223F07F03BB71BB79002B0AD1094B0A4A1278D2B21A70074B1B78DBB203F00F03FB71054B1B78DBB2FA799A42E2D10837BD4680BD28600040DD82FF1F7B
:401200005283FF1FE082FF1F2960004080B582B000AF1D4B1B78FB711B4AFB7913701A4B1B78FB71FB795BB2002B03DA174AFB79137025E0022000F043FA154B1B78DBB280
:4012400003F06003202B08D0402B0BD0002B0ED100F004FB0346FB710CE001F09DFD0346FB7107E001F0C0FA0346FB7102E00023FB7100BFFB79002B02D1044B03221A70EE
:401280000837BD4680BD00BF28600040DD82FF1F0060004080B500AF104B1B78DBB2062B19D801A252F823F0D7120000D7120000C5120000D7120000CB120000D712000032
:4012C000D112000000F0FAF806E000F0A9F903E000F0D2F900E000BF80BD00BFC082FF1F80B500AF124B1B78DBB2062B1DD801A252F823F02B1300002B13000011130000F1
:401300002B130000171300002B1300001D13000000F0DAF80AE000F029F907E0032000F0CFF9044B03221A7000E000BF80BD00BFC082FF1FDD82FF1F80B483B000AF0023A8
:40134000FB71294B1B78DBB29AB2284B1B889BB213449AB2254B1A8015E02549FB79254A52681278D2B2CA54224B5B680133214A5360FB790133FB711E4B1B889BB2013BBA
:401380009AB21C4B1A801B4B1B889BB2002B02D0FB79072BE1D9144B1B78DBB2082B02D0FB79002B0FD0144B1B78DBB283F07F03DB43DAB2104B1A70104B0F221A70104BB7
:4013C00002221A7005E00D4B02221A700C4B02221A700C4AFB791370034AFB7913700C37BD465DF8047B7047BC82FF1FBE82FF1F00600040C882FF1F5283FF1FDD82FF1FBB
:40140000C082FF1FE082FF1F80B582B000AF164B1B889BB2002B02D100F02EF81EE0134B02221A70124B00221A7000F069F9114BDB79DBB29BB21B029AB20E4B9B79DBB2FF
:401440009BB21343FB80084B1B889BB2FA889A4202D2054AFB881380FFF76EFF012318460837BD4680BD00BFC882FF1FC082FF1F5283FF1F0060004080B400AF0A4B02229A
:401480001A700A4B80221A70094B0F221A70094B00221A70084B00221A7001231846BD465DF8047B704700BFC082FF1F5283FF1FDD82FF1FBC82FF1FE082FF1F80B500AFB4
:4014C000FFF73AFF80BD00BF80B500AF0A4B1B78DBB29AB2094B1B889BB213449AB2074B1A80074B00221A70012000F0E9F8054B03221A7080BD00BFBC82FF1FBE82FF1FA4
:40150000C082FF1FDD82FF1F80B582B000AF124B04221A70114B80221A7000F0F1F8104BDB79DBB29BB21B029AB20D4B9B79DBB29BB21343FB800B4B1B889BB2FA889A429D
:4015400002D2084AFB881380074B0B221A70012318460837BD4680BDC082FF1F5283FF1F00600040C882FF1FDD82FF1F80B483B000AF0023BB71234B1B78DBB203F00F0355
:40158000DBB2023BFB71FB799AB21F4B1B889BB213449AB21C4B1A8018E01C4B5B681C49BA798A5CD2B21A70184B5B680133174A5360BB790133BB71FB79013BFB71134B0D
:4015C0001B889BB2013B9AB2104B1A800F4B1B889BB2002B02D0FB79002BDED10D4AFB7913700D4B1B78DBB283F07F03DB43DAB2094B1A70094B0B221A700C37BD465DF800
:40160000047B704729600040BE82FF1FC882FF1F00600040E082FF1F5283FF1FDD82FF1F80B500AF044B00221A70012000F048F8024B03221A7080BDC082FF1FDD82FF1F0F
:4016400080B400AF084B06221A70084B06221A70074B80221A70074B00221A7001231846BD465DF8047B7047C082FF1FDD82FF1F5283FF1FE082FF1F80B500AF0C4B1B78D3
:40168000DBB2002B0AD00B4A094B1B78DBB263F07F03DBB21370064B00221A70064B00221A70012000F00CF8044B03221A7080BDDE82FF1F08600040C082FF1FDD82FF1F9D
:4016C00080B483B000AF0346FB710B4B9B68002B0CD0094B9B68FA791A70074B9B68074A128892B25A80044B00229A600C37BD465DF8047B704700BFC882FF1FBE82FF1F4C
:4017000080B400AF094B00221A80094B9B68002B07D0074B9B6800221A70054B9B6800225A80BD465DF8047B704700BFBE82FF1FC882FF1F80B400AF104A104B1B78DBB242
:4017400023F00103DBB213700D4B9B7C0D4B1B7BDBB203F00303012B08D00A4BDB7BDBB283F07F03DB43DAB2064BDA73054B01225A73BD465DF8047B704700BF0B600040AE
:40178000FC5F0040E482FF1F80B400AF104A104B1B78DBB223F00203DBB213700D4B93F822300D4B1B7EDBB203F00303012B08D0094BDB7EDBB283F07F03DB43DAB2064B50
:4017C000DA76054B01225A76BD465DF8047B70470B600040FC5F0040E482FF1F80B400AF124A124B1B78DBB223F00403DBB213700F4B93F832300F4B93F82430DBB203F018
:401800000303012B0AD00B4B93F82730DBB283F07F03DB43DAB2074B83F82720054B012283F82520BD465DF8047B70470B600040FC5F0040E482FF1F80B400AFBD465DF85E
:40184000047B704780B500AFFFF720F980BD00BF80B500AF00F0F2FF80BD00BF80B586B000AF0023FB759D4B1B78FB7100233B619B4B00221A80FB795BB2002B80F20481EA
:40188000964B5B78DBB20A2B00F2FC8001A252F823F000BFDD190000851A0000851A0000851A0000851A0000851A0000C1180000851A00004F1A0000851A0000651A000075
:4018C000864BDB78DBB2012B0ED100F017FEB860BB685B68824A5360814B12221A80FFF793FD0346FB7578E07C4BDB78DBB2022B24D17A4B9B78DBB2184600F0D5FDB86013
:40190000BB68002B69D0BB685B68754A5360744B5B6803331B78DBB29BB21B029AB2704B5B6802331B78DBB29BB213439AB26C4B1A80FFF769FD0346FB75A4E0674BDB7889
:40194000DBB2032B44D10023FB73664B3B6109E03B691B78BB71BB793A6913443B61FB7B0133FB735D4B9B78DBB2FA7B9A4204D23B691B78DBB2002BEAD1584B9B78DBB22F
:40198000EE2B01D1584B3B61544B9B78DBB2002B0BD0524B9B78DAB2544B1B7C9A4204D1534800F0A1F9524B3B613B691B78DBB2002B12D03B691B78DBB29AB2484B1A8029
:4019C000474A3B695360FFF71FFD0346FB755AE001F0E2F90346FB7555E054E0FB7903F00303002B1FD0022B00D02FE03C4B02221A803A4B1B79DBB203F07F023D4913463B
:401A00005B0013449B000B449B78DAB23A4B1A70394B00225A70324B374A5A60FFF7F4FC0346FB7512E02E4B02221A80334B1B78DAB2314B1A70304B00225A70284B2E4A77
:401A40005A60FFF7E1FC0346FB7500BF1BE0244B01221A80224B2A4A5A60FFF7D5FC0346FB7510E01E4B01221A801C4B1B79DBB21A46244B13441A4A5360FFF7C5FC034644
:401A8000FB7500E000BF19E1144B5B78DBB2013B0A2B00F2128101A252F823F0A71B0000BB1C0000311C0000BB1C0000C91A0000BB1C0000BB1C0000BB1C00000D1B00001B
:401AC000BB1C0000631B0000044B9B78DAB20E4B1A70FFF7B5FD0346FB75EFE000600040C882FF1F502F000058300000F82E00005883FF1FE482FF1FBC81FF1FE182FF1F02
:401B0000DF82FF1F5083FF1FDE82FF1F6E4B9B787B717B79002B06D07B79013BDBB2184600F0C2FCB8607B79002B02D0BB68002B02D17B79002B13D1644B1B78DBB27A7952
:401B40009A4208D0614A7B791370614B01221A70012000F0C1F9FFF773FD0346FB75ADE0ACE000F009FE0346002B1BD0564B1B793B71554B1B79DAB2564B1A703B79564ABD
:401B8000D35CDAB23B795549CB5CDBB29A4204D04F4B01221A7000F069FBFFF751FD0346FB758BE08AE0FB7903F00303012B22D0012B0DD3022B00D039E0434B9B78DBB26C
:401BC000002B04D100F040FD0346FB752FE02EE03D4B9B78DBB2012B0CD1414B1B78DBB223F00203DAB23E4B1A70FFF729FD0346FB751CE01BE0344B1B79DBB2012B15D8C9
:401C0000314B9B78DBB2DB43DBB22F4A1279D2B211461046334A125CD2B21340DAB2314B5A54FFF70DFD0346FB75FFE700BF45E0FB7903F00303012B22D0012B0DD3022BE9
:401C400000D039E0204B9B78DBB2002B04D100F08DFC0346FB752FE02EE01B4B9B78DBB2012B0CD11E4B1B78DBB243F00203DAB21B4B1A70FFF7E4FC0346FB751CE01BE04F
:401C8000114B1B79DBB2012B15D80F4B9B78DBB2DB43DBB20C4A1279D2B211461046114A125CD2B21340DAB20E4B5A54FFF7C8FC0346FB75FFE700BF00E000BFFB7D184617
:401CC0001837BD4680BD00BF00600040DF82FF1FDC82FF1FD482FF1FC482FF1F5083FF1FE182FF1F5483FF1FB0B58AB000AF7860314B07F114041D460FCD0FC42B682370D2
:401D0000002387F826307B68002B52D07B6822221A707B68013303221A7007F10C03184600F044FE022387F827303EE097F827307A68134497F8262007F128010A4412F8E7
:401D40001C2C1209D2B207F128010A4412F8142C1A7097F8273001337A68134400221A7097F8273002337A68134497F8262007F128010A4412F81C2C02F00F0207F128012C
:401D80000A4412F8142C1A7097F8273003337A68134400221A7097F82630013387F8263097F82730043387F8273097F82730212BBCD92837BD46B0BDE42E000090B482B001
:401DC00000AF0123FB7174E03F4AFB791B0113440C221A70FA793D4913465B0013449B000B445B79DBB2002B1AD0FA79374913465B0013449B000B441B79DBB2DBB25BB221
:401E0000002B06DA324AFB791B0113440C229A700CE02F4AFB791B01134408229A7005E02B4AFB791B01134480229A702648F979FA79264C13465B0013449B002344DB885A
:401E40009BB2DAB20B0103449A711F48F979FA791E4C13465B0013449B002344DB889BB21B0A9BB2DAB20B010344DA711648F979FA79164C13465B0013449B002344DB8807
:401E80009BB2DAB20B0103441A710F48F979FA790E4C13465B0013449B002344DB889BB21B0A9BB2DAB20B0103445A71FB790133FB71FB79082B87D9064BFF221A700837A6
:401EC000BD4690BC704700BF70600040E482FF1FFC5F00400A60004080B58AB000AF0346FB7100237B84002387F827304CE097F82720C44913465B0013449B000B44002230
:401F00001A7097F82720BF4913465B0013449B000B4400229A7097F82720BA4913465B0013449B000B440022DA7097F82720B54913465B0013449B000B44083300221A801E
:401F400097F82720AF4913465B0013449B000B44083300229A7097F82720AA4913465B0013449B000B4400225A7097F82720A54913465B0013449B000B4400225A7197F858
:401F80002730013387F8273097F82730082BAED9FB79002B16D0002387F825300EE097F82530994A0021D15497F82530974A0021D15497F82530013387F8253097F82530CE
:401FC000012BECD9924B1B78DBB2002B00F049810023FB768E4B1B78DBB2013BDBB2184600F062FA78617B695B683B613B6907331B7803F04003002B08D0864B1B78DBB257
:4020000043F00103DAB2834B1A7007E0814B1B78DBB223F00103DAB27E4B1A707B6908337B617B691B7887F82730012387F82530B3E07B695B68FB61002387F82630A0E06E
:4020400097F82520FB699B7803F07F039A4240F0908097F825206B4913465B0013449B000B4408331B889AB2FB699B889A420CD297F82520FB699888624913465B0013448E
:402080009B000B44083302461A80FB691B781A465D4B9B5CDAB2FB695B789A4269D197F82520FB699878574913465B0013449B000B4402461A7197F82520FB69D878514978
:4020C00013465B0013449B000B4402461A70FB69DB7803F00303FB73FB699B78DBB25BB2002B1ADA97F82520FB7B012B01D1072000E00D20434913465B0013449B000B44CE
:4021000002465A7197F825203E4913465B0013449B000B4401225A7019E097F82520FB7B012B01D1052000E00920364913465B0013449B000B4402465A7197F8252031490B
:4021400013465B0013449B000B4400225A70FB699B790A2B03D0FB699B79022B09D197F82520FB7EF86911461A46FEF789FF0346FB76FB690833FB6197F82630013387F850
:40218000263097F8262097F827309A42FFF458AF97F82530013387F8253097F82530082B7FF647AF7B695B68FB61002387F8253016E0FB699B7803F07F02FB6918781149A1
:4021C00013465B0013449B000B44083302469A70FB690833FB6197F82530013387F8253097F8252097F827309A42E2D300F098F90246094B1A6000237B84012387F8273078
:4022000029E000BFE482FF1F5083FF1FC482FF1FDF82FF1FE182FF1FD882FF1F97F82720114913465B0013449B000B447A8CDA8097F827200C4913465B0013449B000B44E0
:4022400008331B889AB27B8C13447B8497F82730013387F8273097F82730082BDED9FFF7ADFD2837BD4680BDE482FF1F90B585B000AF874B1B78DBB2002B00F00681844BC8
:402280001B78DBB2013BDBB2184600F00DF978607B6808337B607B681B78FB707B685B68BB607C4B1B78BB700023FB73E8E0BB681B78BA789A4240F0DD80BB78764AD35C1D
:4022C000DAB2BB685B789A4240F0D480BB689B7803F07F037B70BB68DB7803F003033B707A786E4913465B0013449B000B440022DA707A78BB689878684913465B00134461
:402300009B000B4402461A717A78BB68D878634913465B0013449B000B4402461A707A78BB6898885D4913465B0013449B000B44083302461A80BB689B78DBB25BB2002B20
:4023400018DA7A783B78012B01D1072000E00D20524913465B0013449B000B4402465A717A784E4913465B0013449B000B4401225A7017E07A783B78012B01D1052000E0E7
:402380000920464913465B0013449B000B4402465A717A78414913465B0013449B000B4400225A703E4A7B781B01134401229A703B4879787A78394C13465B0013449B0054
:4023C000234408331B889BB21B0A9BB2DAB20B0103441A70324879787A78304C13465B0013449B00234408331B889BB2DAB20B0103445A702B4879787A78284C13465B0038
:4024000013449B002344DB889BB2DAB20B0103449A71244879787A78204C13465B0013449B002344DB889BB21B0A9BB2DAB20B010344DA711B4879787A78184C13465B0037
:4024400013449B002344DB889BB2DAB20B0103441A71144879787A78104C13465B0013449B002344DB889BB21B0A9BB2DAB20B0103445A71BB680833BB60FB7B0133FB73E4
:40248000FA7BFB789A42FFF412AF1437BD4690BDDF82FF1FD482FF1F5083FF1FE482FF1FFC5F00407060004080B485B000AF0346FB71104B1B78DBB20F4ADB0013445B6860
:4024C000FB60FB681033FB60FB681B78FA799A4202D30023FB6005E0FB79DB00FA6813445B68FB60FB6818461437BD465DF8047B704700BFBD82FF1F5030000080B400AFC4
:40250000054B1B78DBB2054ADB0013445B681846BD465DF8047B7047BD82FF1F5030000080B584B000AF104B1B78DBB2013BDBB21846FFF7B9FFB860BB68002B0DD0BB6850
:402540005B681B79FB71FB790233DB00BA681344BB60BB685B68FB6001E00023FB60FB6818461037BD4680BDDF82FF1F80B582B000AF0023FB71314B1B79DBB203F07F0362
:40258000BB71BB79002B53D0BB79082B50D8BA79B9792B480B465B000B449B0003449B78DBB243F00103D8B2254913465B0013449B000B4402469A70BA79214913465B00C2
:4025C00013449B000B440022DA70BA79B9791C480B465B000B449B0003445B78DBB243F00203D8B2164913465B0013449B000B4402465A70BA79124913465B0013449B00CC
:402600000B441B79DBB2DBB25BB2002B06DA0D4ABB791B0113448D229A7005E0094ABB791B01134489229A70FFF70AF80346FB71FB7918460837BD4680BD00BF00600040DD
:40264000E482FF1FFC5F004080B582B000AF0023FB71464B1B79DBB203F07F03BB71BB79002B7DD0BB79082B7AD8BA79B97940480B465B000B449B0003449B78DBB223F061
:402680000103D8B23A4913465B0013449B000B4402469A70BA79364913465B0013449B000B440022DA70334ABB791B0113447F221A70BA79B9792E480B465B000B449B00EF
:4026C00003445B78DBB223F00203D8B2284913465B0013449B000B4402465A70BA79244913465B0013449B000B441B79DBB2DBB25BB2002B18DABA791D4913465B00134408
:402700009B000B445B78DBB2012B06D1194ABB791B0113440C229A701EE0164ABB791B0113440D229A7017E0BA79114913465B0013449B000B445B78DBB2012B06D10D4A99
:40274000BB791B01134408229A7005E0094ABB791B01134409229A70FEF772FF0346FB71FB7918460837BD4680BD00BF00600040E482FF1FFC5F004080B584B000AF002345
:40278000FB73154B1B79BB73144B1B78DBB2013BDBB21846FFF788FEB860BB685B681B79FB71BA7BFB799A4202D9BB7B022B0ED8BB7BBA7B0A498A5CD1B20A4AD154BB7BEA
:4027C000054A9278D1B2064AD1540123FB73FB7B18461037BD4680BD00600040DF82FF1F5083FF1FC482FF1F80B582B000AF0023FB710F4B1B78DBB2DBB25BB2002B12DA57
:402800000B4B5B78DBB2012B00D00CE0094B0A4A5A60094B1B789AB2064B1A80FEF7F4FD0346FB7100BFFB7918460837BD4680BD00600040C882FF1F6C30000080B400AF48
:40284000054B1B78DBB203F040039B09DBB21846BD465DF8047B70478F450040000000000230800803D000BF01380046FCD17047EFF3108072B6704780F31088704700BF60
:4028800080B483B000AF134B7F221A70124B80221A707F23FB710CE0FB79DB0003F1804303F5F043FA79013AD2B21A70FB79013BFB71FB79002BEFD1FB79DB0003F1804388
:4028C00003F5F04300221A700C37BD465DF8047B704700BF6D81FF1F6C81FF1F80B483B000AF0346FB7101BE0C37BD465DF8047B704700BF80B582B000AF0346FB80FB88E3
:40290000044A127802FB03F31846FFF7A9FF0837BD4680BD7C81FF1F80B584B000AF03463960FB710F4B1B68FB60FB791F2B02D90020FFF7D3FFFB7903F01F0310339B00B0
:40294000FA6813441B68BB60FB7903F01F0310339B00FA6813443A681A60BB6818461037BD4680BD08ED00E080B582B000AF03460A46FB711346BB71BB79072B02D90020E6
:40298000FFF7ACFFFB791F2B02D90020FFF7A6FFFB7903F01F0303F1604303F56443BA795201D2B21A700837BD4680BD80B483B000AF7860264B1B78DBB21A467B681A6014
:4029C000244B1B78DBB21B027A6812681A437B681A60214B1B78DBB21B047A6812681A437B681A601D4B1B78DBB21B067A6812681A437B681A607B680433194A1278D2B20A
:402A00001A60184B1B78DBB21A027B6804337968043109680A431A60134B1B78DBB21A047B6804337968043109680A431A600F4B1B78DBB21A067B680433796804310968D6
:402A40000A431A600C37BD465DF8047B704700BF0301004904010049EC460040020100490101004900010049050100490601004980B500AF054B1B78002B04D100F008F8BB
:402A8000024B01221A7000F061F880BDC081FF1F80B582B000AF284A274B1B78DBB243F00203DBB21370254B1B78DBB223F07003FB71224AFB7943F01003DBB21370204AB3
:402AC0001F4B1B78DBB223F03003DBB213701C4A1B4B1B78DBB243F03003DBB21370184A174B1B78DBB223F00F03DBB21370144A134B1B78DBB243F00F03DBB21370FF202B
:402B000000F048F8002000F055F8002000F062F80C4A0C4B1B78DBB243F00103DBB21370094A094B1B78DBB243F00103DBB213700837BD4680BD00BF004F0040024F00401E
:402B40000B4F0040A3430040014F004080B400AF0D4A0D4B1B78DBB243F00103DBB213700A4A0A4B1B78DBB243F00103DBB21370074A074B1B78DBB243F00103DBB21370F2
:402B8000BD465DF8047B7047A3430040B3430040004F004080B483B000AF0346FB71044BFA7992B21A800C37BD465DF8047B7047044F004080B483B000AF0346FB71044BB3
:402BC000FA7992B21A800C37BD465DF8047B7047064F004080B483B000AF0346FB71044AFB7913700C37BD465DF8047B704700BF034F004080B500AF054B1B78002B04D125
:402C000000F008F8024B01221A7000F061F880BDC181FF1F80B582B000AF284A274B1B78DBB243F00203DBB21370254B1B78DBB223F07003FB71224AFB7943F01003DBB22D
:402C40001370204A1F4B1B78DBB223F03003DBB213701C4A1B4B1B78DBB243F03003DBB21370184A174B1B78DBB223F00F03DBB21370144A134B1B78DBB243F00F03DBB25E
:402C80001370FF2000F048F8002000F055F8002000F062F80C4A0C4B1B78DBB243F00203DBB21370094A094B1B78DBB243F00103DBB213700837BD4680BD00BF0C4F00407F
:402CC0000E4F0040174F0040A34300400D4F004080B400AF0D4A0D4B1B78DBB243F00203DBB213700A4A0A4B1B78DBB243F00203DBB21370074A074B1B78DBB243F00103CA
:402D0000DBB21370BD465DF8047B7047A3430040B34300400C4F004080B483B000AF0346FB71044BFA7992B21A800C37BD465DF8047B7047104F004080B483B000AF0346C4
:402D4000FB71044BFA7992B21A800C37BD465DF8047B7047124F004080B483B000AF0346FB71044AFB7913700C37BD465DF8047B704700BF0F4F004080B483B000AF034638
:402D8000FB71044AFB7913700C37BD465DF8047B704700BF7864004080B582B000AF1A4B1B78DBB203F00303012B02D0022B04D012E0154B1B79BB7111E0134B1B79DBB2A1
:402DC00003F07F02114913465B0013449B000B4408339B78BB7102E00023BB7100BF0C4B1A68BB7913441B78022B04D1FDF7C0FF0346FB7102E00023FB7100BFFB79184643
:402E00000837BD4680BD00BF00600040E482FF1FD882FF1F0E4B70B51E460E4C0025E41AA410A54204D056F8253098470135F8E700F030F9084B094C1E46E41AA410002557
:402E4000A54204D056F8253098470135F8E770BDA0300000A0300000A0300000A830000010B5431E0A44914204D011F8014B03F8014FF8E710BD03460244934202D003F8F3
:402E8000011BFAE77047034611F8012B03F8012B002AF9D17047034613F8012B002AFBD1181A01387047000000000000004F0040240040510040300000000140001000145D
:402EC0000140000800400140000A004C01400002105001401000000000500140C80F004810000000303132333435363738394142434445460000000012010002020000083D
:402F0000B40432F2010001028001000009024300020101C032090400000102020103052400100104240202052406000105240100010705810308000A09040100020A000059
:402F400004070582024000000705030240000000040309042C0343007900700072006500730073002000530065006D00690063006F006E0064007500630074006F00720081
:402F8000100355005300420055004100520054003803430044004300200043006F006D006D0075006E00690063006100740069006F006E00200049006E007400650072003B
:402FC0006600610063006500260343004400430020004400610074006100200049006E007400650072006600610063006500000002030000000081030800020001008202EC
:4030000040000A000100030240000A00020A0000010000000C2F000003000000F42F000000000000000000000000000000000000000000000C30000001000000F82E000025
:4030400000000000000000000100000010300000010000003830000012034D00530046005400310030003000010000002800000000010400010000000000000000014359FA
:403080005553420000003030303031000000000000000000F8B500BFF8BC08BC9E4670474D00000079020000F8B500BFF8BC08BC9E46704729000000C83000000881FF1FA7
:4030C00080000000F8010000000000000A000000435333303120323031360A0000000000000000000000000000000000000000000000000000000000000000000000000030
:403100000000000000000000000000000000000000C2010000000800C201000000080000A12000000000020000000000807F0000030000000087930360EA00003C00000091
:4031400000003075000000000000000000000000000000000000000000000000000000000000000000000000000000000000000000000000000000000000000000000000AA
:40318000000000000000000000000000000000000000000000000000000000000000000000000000000000000000000000000000000000000000000000000000000000000F
:4031C00000000000000000000000000000000000000000000000000000000000000000000000000000000000000000000000000000000000000000000000000000000000CF
:40320000000000000000000000000000000000000000000000000000000000000000000000000000000000000000000000000000000000000000000000000000000000008E
:40324000000000000000000000000000000000000000000000000000000000000000000000000000000000000000000000000000000000000000000000000000000000004E
:020000040003F7
:0200000480007A
:4000000001450040064F00400A520040015B004004640040046500404D0001403101014041020140480301404904014047050140680601404F07014048080140520901407D
:40004000460A0140450B0140240C01404B0D0140320E01403C0F01404B14014052150140431601404E1701404918014058190140361A0140551B01400B4001401B41014000
:400080000F4201401643014003440140124501400A4601400C4701401D48014015490140164C0140024D014005500140035101407E0201200A360D2016361940223600C061
:4000C00001A0086009A0100818A41920601C61087C402F84820F836F870F8C07856F870F88388B720342051C080109400F011001111413281401193C1A011D301E011F0CA5
:4001000022012340252826012714290C2B3031013302353C360137403F405280580459045B045C015F018301841C857F882C8A108C018E4290019202943095FE96089701C9
:40014000980299C59A019B3A9C019DA39E029F5CA030A204A420A604A90EAA80ABF0AD96AE3CAF68B040B23CB3FFB403B6A0BA20BF04D608D804D904DB04DD90DF010304F7
:400180000484070808400AA80E69101011021540162017211B401C011D041E6820102161230C272029052A202D402F063120328033023690370838153A403C055C40664059
:4001C00071018304845085108D018E10C0E2C2FFC4FCCA37CC7DCECFD610D810E201E60A0310047305070A0F0CCF0E30103012C9149E166018FD190C1A021B011D0C1F02FF
:400200002494250B266027042B0F2D082F01311034FF370F3E105280540F580459045B045F018503880189069004920893089520971099059D06A004A203A530A908AF301D
:40024000B001B110B202B320B408B507B604B708B880B920BE01BF45D40FD804D904DB04DF0500100404070D09020A010B020C100E600F1412401620181019A01B011F20A1
:4002800020042110236224802680270129A02B102C102E202F063010310232803304369038043B103C043E0158A85B025C065F6061086210768079208240848488128A042D
:4002C000919293049484968997089E209F01A214A680A702AB40B440C0E2C278C428CA7ECC3FCEC6D6FFD806DE04E201E609E844EE02030405020C100E20100812041404DC
:40030000160818101A201B081C201E101F012202240425022609281029012A202C042D022E08300C310832013304340235013630370239803A823F50580459045F01800422
:400340008208850E89028B04930894089604970E990E9C049E0A9F20A301A601A710A902AB04AC04AD08AE18B002B120B20CB301B401B51EB610BA08D608D804D904DB0420
:40038000DD90DF010201050109200A610E2210A0120A1508174019201A611B121D211E221F0420082184220A25042748282029202A442F6630803210341035403709380415
:4003C00039823A013B403C043F105D806540850887048D028E0490049192928093109640970A98109A809B019C209E509F08A204A320A404A50AA712AC08AF01C011C2AF91
:40040000C4AFCAFECCFCCE63D610D810E440E608EC2000A30131025C03C20B070DF710C511A1123A1352157718961A681C0E1EF020FE21C022012334247F255427A02A01DB
:400440002B0830FF330F37F03E014051410349FF4AFF4BFF4DA04F015018580459045A045F016040628064406540668068406A806C406D206E8080CF82308B018CFD8D0198
:400480008E02909E92609301950198309AC99C949D019E60A473A501AA0FAD01B2FFB501BE04C051C103C54EC6C3C702C81FC9FFCAFFCBFFCDAFCE07CF01D018D401D604EA
:4004C000D804D904DA04DB04DC10DD30DF01E040E280E440E540E680E840EA80EC40ED20EE80017203810502080109200A010C210D200E8910101208141017251B081D013C
:40050000222024102608270128022A082C202F8830483240330234013704388039103C103D403E014020418044204580470848804B444F405254588059085A105B026380F0
:400540008350911092819340970698809A809B089E74A184A204A480A880A980AE20AF40B020C019C2DBC476CAEACCCBCEBCD05AD218D60FD801E210E401E60AEC80EE0157
:40058000020806100801120813031401180219011E02221024012A042C013010320833023401350136063E15403441064202440145C0460E480649FF4AFF4BFF4C624DA0BD
:4005C0004EF04F41500C56085804590C5A045B045C195D935F016640670269106A306B106D106E106F128F809513974C9F88A120A345A58AA754A913ABC4AD03AF04B30F33
:40060000B5C8B730B980BB28D804D904DC31DF010002014802100406071408020A010D200E120F9010601421150116081E061F05200822882520272028042A022B11328844
:40064000360137203B403C883D083F404501464047544D014F1057405D805E205F0466A86E806F0179C47B107F0286048E409001918092A9930494809550964098409908B7
:400680009A02A060A101A312A406A688A720AA01B180B204C07DC2F9C4FCCA0FCCAACE08D0F0D220D670D870DE10E210E401E602EC80EE2002020C021002110114021A026A
:4006C000220224012C023001320233013E013F045608580459045B045C115D905F0183138531870E8E028F089531960297069802992C9B039E019F0CA402A540A940AD408D
:40070000AE02B140B401B50FB602B730B980BB20BE40BF40C001C604C9FFCA07CBFFCC40CD20CEF0CF05D008D401D804D904DA04DB0CDC30DD13DF01E040E1A8E240E320A1
:40074000014002010340048008060B080E200F291185160217041AA01E0622042581261029422C022D102F203064310133403698370438083A013C883E023F0845805440B8
:40078000560259805C015D035E416301680169046A107F028401882089408D018E1090099180930C980699489B40A020A302A540B304C089C2EEC4ADCA79CC7FCED3D01038
:4007C000D618D808DE10E440EC20001002200602070208080B040C0212081301144016801A041C04208022402420261028012E013104350136FF37023E405602573D5804D4
:4008000059045B0C5C105D105F01D804D904DC11DF0100010428050406110740080409010B080C240EA9118012501580162417051E02240125032650274829402E082F048F
:400840003024310236543701380939803A483B403D063E203F405D1066026C106D056E016F0576057F0280028104830189088A1090089190930A9420950199409A029C040B
:400880009E059F48A204A302A651AE20B002C0F8C2FEC4FDCA68CCF7CEFBD620D880DE10E281E404E608E80405010D01110115011901210127012A013001350158045904A9
:4008C0005C115F0180018202840B89048A048C07902292019302962098139E40A210A301A603AA03AD04AE08B001B27CB301B502B602B704B808B980BE04BF40D203D3029C
:40090000D804D904DB04DC11DD10DF01000601020340048806040740080109040B080C010E8A0F90101011401204130814261501160118801F452220240E250C26042820B3
:4009400029022C222D012F04301131083402361438A639C03A023B103C063D103F806D106F02804084208540864087448C208D408E048F40C0FCC2FEC4F7CAF3CCE7CEFA06
:40098000E008E2504032410649FF4AFF4BFF4DA04F0150185608580459045A045B045C115D905F016040628064406540668068406A806C406D206E808109850289098B02BC
:4009C000900495089E06A104AE01AF04B002B102B308B404B504B601B701B988BE10BF15C032C106C53CC620C74EC83BC9FFCAFFCBFFCDAFCE07CF01D018D40FD804D90480
:400A0000DA04DB04DF05E040E280E440E540E680E840EA80EC40ED20EE8000800202086A09020E800F021140130116021E841F40240226012718286829602A802C802F4221
:400A400032023704388039603D083F3241084310450847104A084E084F06562A571258805D805E065F106240660867047E2081A082808309842085129080940295209780DD
:400A800098C099209B049C229D409E60A040A10CA228A480AA04AD02AF12B040C001C29FC489CA9FCC41CEECD066D224D6F8D868DE40E203E401E608EA01EC20EE4201018C
:400AC000020803040DAD0F10100113021804197C1DD11F0822042A062B1D2DD12F04300832043303340235E03601371D39203E44580459045F0180608210830286018901DB
:400B00008D018E01900194029701984099029A089D029E78A060A101A208A438A501A804AB01AC58AD01AE20B001B202B404B502B678B701BE15BF10D40FD804D904DB0492
:400B4000DC10DF01000802010380064009200A010BA80D020E081001114012A41680172019881A401B901D081E0A1F012140221026E02724286029602A082B022D802F049D
:400B80003088311035013660388239203A013D403E01480449104A0858015A605B048140820188488CC09140920194809702984099219A809C029D089E289F26A124A208A3
:400BC000A408A640A792AA30C01DC25FC45FCA3FCCBECE9DD60FE010E284EA01EC01EE420040010C021103110480051C0622070208F30A040B800C510D100EA21140138002
:400C00001510170C18301AC31B031D091E0C1F10232027C028F329142A082F4031E0331F34F0360F37E039203A883F514061410345CE470B481349FF4AFF4BFF4EF04F44A8
:400C4000500C54185604580459045A045B045C335D335F0166C06A406B02800184018C019201A201A401AC01B601D804D904DC11DF01000202100302042006A007010806CF
:400C800009040D200E0110601201151019801D201E111F102508276A284229082C082E812F10302033023688372138013A113B103C803D053E20450446024C404E284F02EA
:400CC00054085E026502670A79807B028308880489038A108D40900191849204930A94869510961098409AF29B019C279F44A060A104A2C8A403A721A840AA10AD80AE10F1
:400D0000B520B640C0FDC2C8C44DCAFBCCF5CEF5D050D220D680D8B0E280E630EA08EC05EE4A580459045C115F01810682C38361843085028A0C8B108C048D078E088F6079
:400D4000903C912192C194FF95619706980899069C209D089F10A004A104A4CFA630A721A810A967AC7CAE82AF08B0B0B120B23FB318B470B507B740B980BA0ABB20D60288
:400D8000D712D804D904DB04DC33DD30DF010001030A041006500701081109020B100C800D020E100F0410601104168A17041C041D061E40241226012704285229082C806B
:400DC0002E902F10330236403716380139043B103E6A448046405E0460206104662067046C126D106F2074807618771080038308846088A08A028B109001921493109426AB
:400E00009510984099089AE09B039C239F04A020A240A302A402A601A720A908AE20B001B108B580C0FBC2F6C4FCCAFBCCF1CEF7D640E880EC20EE401020168030803202C5
:400E40003502364039143E80C430CCF0CE7003800740331237805F01634066018202848085028702934095149D02A020A480A642A780AF40B780C030CC70D680D8C0E28054
:400E8000E610EE401380550887808D01951497019B409E019F90A480A640B020C440D440E61019011D08831085068F029404951497019B409D019E019F10A380A490A50825
:400EC000A640A804B010C630E220E650E82076808520DE04020808082310571080088202870497109A019E80A120AA01B310C002C208C802D402EE018E80970898089A030E
:400F00009E80A120A208A408A710E4080B480C0883108710970898089A03A120A208A408A710C20E002004042080662068026C1080928220830189108F4094049510970125
:400F400099039B429E01A108A380A410AE40B480C060C840D880DAC0E2A0E680EE405380568059025F026501668072807C80988099039B02A380AD08B040B601D460D6C04E
:400F8000D880DC80DE20E8401F103401512059045E0862016602972099049A03A120A204A904AA04AC08AE08AF40C601CC01D404D603D803B001EC04100B11011A031B01C1
:400FC0001C0A00AB01FF100A0B0100000000000003010B010B0102000300000000E0E000001F1F001F0000004000060000000000C00000000000000000F4F4000800140AA8
:401000000A0008000000000000FFFF00BC000000000100000000000000000000000000000000000000000000000000000000000000000000000000000000000000000000E3
:401040000000000000000000000000000000000000000000000000000000000000000000000000000000000000000000000000000000000000000000000000000000000070
:401080000000000000000000000000000000000000000000000000000000000000000000000000000000000000000000000000000000000000000000000000000000000030
:4010C00000000000000000000000000000000000000000000000000000000000000000000000000000000000000000000000000000000000000000000000000000000000F0
:4011000000000000000000000000000000000000000000000000000000000000000000000000000000000000000000000000000000000000000000000000000000000000AF
:0200000490006A
:0400000000004005B7
:0200000490105A
:04000000BC90ACAF55
:0200000490303A
:020000003D08B9
:0200000490402A
:4000000000000000000000000000000000000000000000000000000000000000000000000000000000000000000000000000000000000000000000000000000000000000C0
:400040000000000000000000000000000000000000000000000000000000000000000000000000000000000000000000000000000000000000000000000000000000000080
:400080000000000000000000000000000000000000000000000000000000000000000000000000000000000000000000000000000000000000000000000000000000000040
:4000C0000000000000000000000000000000000000000000000000000000000000000000000000000000000000000000000000000000000000000000000000000000000000
:0200000490501A
:0C00000000012E16106900012E2D4D711C
:00000001FF